:020000040800F2
:10000000101C0020C91800087D0500087F050008A5
:1000100083050008870500088B0500080000000024
:100020000000000000000000000000008F05000834
:1000300091050008000000006F48000889160008BC
:10004000E3180008E3180008E3180008E3180008A4
:10005000E3180008E3180008E3180008E318000894
:10006000E3180008E3180008E3180008E318000884
:10007000E3180008E3180008E3180008E318000874
:10008000E3180008E3180008E3180008E318000864
:10009000E3180008E3180008E3180008E318000854
:1000A000E3180008E3180008E3180008E318000844
:1000B000E3180008E3180008E3180008E318000834
:1000C000E3180008E3180008E3180008E318000824
:1000D000E318000859180008E3180008E31800089E
:1000E000E3180008E3180008E3180008E318000804
:1000F000E3180008E3180008E3180008E3180008F4
:10010000E3180008E3180008E3180008E3180008E3
:10011000E3180008E3180008E3180008E3180008D3
:10012000E3180008E3180008E3180008E3180008C3
:1001300000F002F800F03FF80AA090E8000C8244BA
:100140008344AAF10107DA4501D100F034F8AFF297
:10015000090EBAE80F0013F0010F18BFFB1A43F0A5
:100160000103184784870000A4870000103A24BFC9
:1001700078C878C1FAD8520724BF30C830C144BF0C
:1001800004680C607047000000230024002500264E
:10019000103A28BF78C1FBD8520728BF30C148BFEA
:1001A0000B607047642904F0D783002070471FB5A7
:1001B0001FBD10B510BD04F095FC1146FFF7F7FF09
:1001C00000F026F904F0B3FC03B4FFF7F2FF03BC20
:1001D00001F0E4FA18E0B7480088401CB5490880EF
:1001E000084600880F2801DD00200880B248B14988
:1001F0000988405C40B1AF480188B048006803F00E
:1002000077FAFF2004F014F9E5E700BF09E0AC49F4
:10021000AC48006804F096FCAA490860C82004F0C5
:10022000CFF9F4E799E0A84A0021A448006803F058
:10023000A4F9A64908809F480088072809DC002007
:10024000A3490880A1480088C0F10800A14908809E
:1002500007E001209E4908809C480088C01F9D49F6
:1002600008809D4800889B49098888426CD04FF4DB
:100270007A7004F0A5F99848008896490988884260
:1002800008DD00209549088093480088401E924967
:10029000088007E00120914908808F480088401CB1
:1002A0008D4908808C4800888A49098888422FD166
:1002B0008748008868B9002087490988C1F108018A
:1002C0007D4A505484480088C0F10800794908806C
:1002D0000DE07F48008850B10021774A7E480088B1
:1002E000C01D11547C480088C01D724908807A489E
:1002F00001887BA004F0F0FA774800886D490880F7
:100300004FF47A7004F05CF9062004F002F81BE068
:100310006F48008830B970480088C0F1080065490E
:10032000088007E06A48008820B16B480088C01D3B
:1003300060490880062003F0ECFF684802886648A0
:1003400001886CA004F0C8FA634800885F490988F6
:10035000884202D1142004F033F964E757E06D4875
:100360000078002850D000206A4908706A48007858
:10037000012828D168484078684908806648807814
:1003800008B1012000E000206549087008460078A7
:1003900038B9012061490988C1F10801464A505421
:1003A00009E05F480078012805D10121424A5B48F5
:1003B0000088C01D11545A4802785848018859A035
:1003C00004F08AFA20E05448007802281CD15248F0
:1003D00040785A4908804148008830B10121364AA6
:1003E00056480088C01D115409E03C48008830B9C7
:1003F000012052490988C1F108012F4A50544F4841
:1004000001884FA004F068FA0A2004F0D9F8A6E7A2
:100410000EB501F045F94FF4A06001F075FA4FF404
:10042000E13001F0CAF900F0A5F900F0DEFF4FF667
:10043000FF705023A02200210090084600F0C0F970
:10044000002010214FF6FF724FF47843CDE90021D0
:1004500002903FA20146282000F016FE01F0F0F8BD
:100460003EA004F039FA02F0F5F8002002F0FFFF98
:100470001249086005233D4A0021AFF21F1003F026
:1004800057FD07233A4A0021AFF2672003F050FDE1
:100490000823384A0021AFF28D2003F049FD0623DE
:1004A000354A0021AFF2D32003F042FD02F0A7F954
:1004B00000200EBD1200002098080020000000203F
:1004C0000AD7233C20000020040000201000002058
:1004D0001A0000201C0000200C0000200E0000204C
:1004E000B5E7CCDDD2D1B5BDB4EFB5DA2564B2E362
:1004F0000D0A0000B5E7CCDDB5B1C7B0D4CBD0D084
:10050000D6C12564B2E32CB7BDCFF2CEAA25640DC7
:100510000A0000004400002070090020160000209E
:1005200014000020C2A5B2E3202564202C20B7BD12
:10053000CFF2202564200D0A0000000018000020E2
:10054000C4BFB1EAC2A5B2E3202564200D0A0000B1
:10055000656C657661746F7200000000D3B2BCFEFA
:10056000B3F5CABCBBAFCDEAB1CF0A0094020020FC
:10057000940400209406002094080020704700BFD7
:10058000FEE700BFFEE700BFFEE700BFFEE77047E3
:10059000704700000CB50020019000906C48006886
:1005A00040F480306A49086000BF6948006800F480
:1005B000003000900198401C0190009818B90198F3
:1005C000B0F5A06FF1D16248006800F4003010B1BE
:1005D0000120009001E0002000900098012843D104
:1005E0005C48006840F010005A49086008460068FE
:1005F00020F0030008600846006840F00200086030
:100600005348406852494860084640684860084678
:10061000406840F4806048600846406820F47C10E0
:1006200048600846406840F4E810486008460068A2
:1006300040F08070086000BF4548006800F000701E
:100640000028F9D04248406820F003004049486043
:100650000846406840F00200486000BF3C484068DF
:1006600000F00C000828F9D10CBD10B5FFF792FF7F
:1006700010BD10B53648006840F0010034490860EC
:1006800008464068344908403149486008460068D7
:10069000324908402E4908600846006820F480204E
:1006A00008600846406820F4FE0048604FF41F00D0
:1006B0008860FFF7DAFF4FF000602949086010BD3D
:1006C00010B5002100200022214B5B6803F00C01D3
:1006D00021B1042906D0082928D107E0214B224C5A
:1006E000236027E01F4B204C236023E0184B5B68FE
:1006F00003F47010164B5B6803F48032022303EBA3
:10070000904022B9194B4343174C23600DE0104B26
:100710005B6803F4003323B1144B4343124C236052
:1007200003E0104B4343104C236003E00D4B0E4C91
:10073000236000BF00BF064B5B68C3F303130C4C80
:10074000E15C094B1B68CB40074C236010BD0000E7
:1007500000100240002002400000FFF8FFFFF6FEFC
:1007600008ED00E000127A002400002000093D009E
:100770002800002008B50121482001F053FE202068
:10078000ADF8000010208DF8030003208DF8020062
:100790006946094801F086F92021074801F02FFA3F
:1007A0002020ADF800006946044801F07BF92021C3
:1007B000024801F024FA08BD000C01400018014075
:1007C0002DE9F04706460F4614461D46DDF820A0E9
:1007D000681E83B2601E82B23946304600F0E2FDE8
:1007E000B8460EE0B14606E0504600F0C2FD09F101
:1007F00001001FFA80F9A145F6DB08F101001FFA9C
:1008000080F8A845EEDBBDE8F08770B504460D46DC
:1008100016462B4622462946204600F0C3FD3046A8
:1008200000F0A7FD70BD2DE9FF4F85B081468A46D7
:100830000020039083460798A0EB09050898A0EBD9
:100840000A06CDF80890CDF804A0002D01DD01279F
:1008500005E00DB9002702E04FF0FF376D42002E92
:1008600002DD4FF0010806E016B94FF0000802E083
:100870004FF0FF387642B54201DD2C4600E03446A9
:10088000002004901EE0019A91B2029A90B2129A4E
:10089000FFF7BBFF039828440390B3440398A0429A
:1008A00005DD0398001B0390029838440290A3458D
:1008B00004DDABEB040B0198404401900498401C0C
:1008C00080B20490611C04988842DCDB09B0BDE86A
:1008D000F08F2DE9F84305460E4617469846089CCA
:1008E00033463A46314628460094FFF79CFF43467C
:1008F0002A46314628460094FFF795FF43463A467C
:10090000414628460094FFF78EFF43463A4631465B
:1009100038460094FFF787FFBDE8F8832DE9F047DC
:1009200006460F46904699460025444641E07A1B0C
:1009300091B2321B90B24A46FFF767FF7A1B91B221
:10094000321990B24A46FFF760FF3A1991B2721B12
:1009500090B24A46FFF759FF3A1B91B2721B90B210
:100960004A46FFF752FF7A1991B2321990B24A46BD
:10097000FFF74BFF3A1B91B2721990B24A46FFF74C
:1009800044FF3A1991B2721990B24A46FFF73DFFFF
:100990007A1991B2321B90B24A46FFF736FF6D1CAE
:1009A00005FB05F004FB040108FB08F0814200DDB3
:1009B000641EA542BBDDBDE8F0872DE9FF5F06465A
:1009C000894692469B460F9C002003900096204645
:1009D000E21704EB5272D2102146E31704EB537373
:1009E000DB10A4EBC3030BB1012300E000231A4486
:1009F000624392B2019205200290002571E005EB5E
:100A00008510FA4911F810009AF80010884265D153
:100A100005EB8510F54901EB400040789AF801108C
:100A200088425BD109EB0400401E83B23019401E9E
:100A300082B24946304600F0B5FC00274BE04FF04B
:100A4000000842E01098F8B905EB8510E74901EB82
:100A50004000801CC05D012101FA08F1084018B176
:100A6000584600F086FC02E00E9800F082FC0398E5
:100A7000401CC0B20390039890FBF4F104FB1100FA
:100A8000F8B90020039023E005EB8510D74901EB6E
:100A90004000801CC05D012101FA08F1084020B12E
:100AA0005A4649463046FFF7B0FE701C86B20098A1
:100AB000301AA04205D1009E09F101001FFA80F909
:100AC00006E008F1010000F0FF08B8F1080FB9DBFB
:100AD00000BF781CC7B201988742B0DB00BF681C1A
:100AE00085B2029885428ADBBDE8FF9F2DE9FF5F52
:100AF0000646894692469B460F9C0020039000962E
:100B00002046E21704EB5272D2102146E31704EBA1
:100B10005373DB10A4EBC3030BB1012300E00023EC
:100B20001A44624392B2019205200290002579E0B6
:100B300005EB850000EB4510AD4911F810009AF85F
:100B4000001088426BD105EB850000EB4510A849E9
:100B500001EB400040789AF8011088425FD109EB20
:100B60000400401E83B23019401E82B2494630460E
:100B700000F018FC00274FE04FF0000846E0109806
:100B800008BB05EB850000EB4510994901EB4000DF
:100B9000801CC05D012101FA08F1084018B15846D7
:100BA00000F0E7FB02E00E9800F0E3FB0398401C26
:100BB000C0B20390039890FBF4F104FB110008BB52
:100BC0000020039025E005EB850000EB45108849E7
:100BD00001EB4000801CC05D012101FA08F10840D2
:100BE00020B15A4649463046FFF70FFE701C86B2C8
:100BF0000098301AA04205D1009E09F101001FFAA9
:100C000080F906E008F1010000F0FF08B8F1080FD4
:100C1000B5DB00BF781CC7B201988742ACDB00BFD0
:100C2000681C85B20298854282DBBDE8FF9F2DE9F2
:100C3000FF5F0646894692469B460F9C0020039024
:100C400000962046E21704EB5272D2102146E317B9
:100C500004EB5373DB10A4EBC3030BB1012300E0DF
:100C600000231A44624392B20192052002900025AB
:100C700071E005EB05105F4911F810009AF80010BB
:100C8000884265D105EB05105A4901EB40004078D8
:100C90009AF8011088425BD109EB0400401E83B230
:100CA0003019401E82B24946304600F07BFB0027D7
:100CB0004BE04FF0000842E01098F8B905EB051042
:100CC0004C4901EB4000801CC05D012101FA08F194
:100CD000084018B1584600F04CFB02E00E9800F0B6
:100CE00048FB0398401CC0B20390039890FBF4F1BA
:100CF00004FB1100F8B90020039023E005EB051078
:100D00003C4901EB4000801CC05D012101FA08F163
:100D1000084020B15A4649463046FFF776FD701C20
:100D200086B20098301AA04205D1009E09F1010058
:100D30001FFA80F906E008F1010000F0FF08B8F1A1
:100D4000080FB9DB00BF781CC7B201988742B0DB3F
:100D500000BF681C85B2029885428ADBBDE8FF9F10
:100D60002DE9FF5F0646894692469B460F9C002070
:100D7000039000962046E21704EB5272D2102146EF
:100D8000E31704EB5373DB10A4EBC3030BB1012394
:100D900000E000231A44624392B2019205200290BF
:100DA000002581E005EB850000EBC500124911F834
:100DB00010009AF80010884273D105EB850000EB13
:100DC000C5000D4901EB400040789AF801108842B7
:100DD00067D109EB0400401E83B23019401E82B275
:100DE0004946304600F0DEFA002757E05C850008EF
:100DF000EA83000840830008BE8200084FF0000824
:100E000046E0109808BB05EB850000EBC500FE49E5
:100E100001EB4000801CC05D012101FA08F108408F
:100E200018B1584600F0A5FA02E00E9800F0A1FAB9
:100E30000398401CC0B20390039890FBF4F104FBAC
:100E4000110008BB0020039025E005EB850000EBB6
:100E5000C500ED4901EB4000801CC05D012101FA95
:100E600008F1084020B15A4649463046FFF7CDFC0C
:100E7000701C86B20098301AA04205D1009E09F17C
:100E800001001FFA80F906E008F1010000F0FF08F8
:100E9000B8F1080FB5DB00BF781CC7B201988742D4
:100EA000ACDB00BF681C85B202988542FFF67AAFC2
:100EB000BDE8FF9F2DE9FE4F8046894617469A46BA
:100EC000DDE90D460C9D36E00C2C09D153463A461F
:100ED00049464046CDE901460095FFF741FF25E030
:100EE000102C09D153463A4649464046CDE90146C1
:100EF0000095FFF79CFE19E0182C09D153463A469D
:100F000049464046CDE901460095FFF7EFFD0DE06B
:100F1000202C09D153463A4649464046CDE9014680
:100F20000095FFF74AFD01E0BDE8FE8FBF1C08EB0E
:100F300004001FFA80F838780028C5D100BFF3E715
:100F40002DE9FF5F80468A4617469B460F9D00208D
:100F50000290CDF80080284605EBD071C1F347041C
:100F60002046E21704EB5272D2102146E31704EB3D
:100F70005373DB10A4EBC3030BB1012300E0002388
:100F80001A446A4392B20192A7F12000C7B20AEB59
:100F90000500401E83B208EB0400401E82B2514699
:100FA000404600F0FFF9002669E00C2D07D107EB61
:100FB0004700964901EB8000805D03901BE0102DF7
:100FC00005D1934800EB0710805D039013E0182DC6
:100FD00007D107EB47008F4901EB0010805D0390BC
:100FE00009E0202D05D18C4800EB8710805D03902F
:100FF00001E0BDE8FF9F4FF000093AE01098C8B942
:10100000012000FA09F00399084018B1584600F091
:10101000B0F902E00E9800F0ACF90298401CC0B2A2
:101020000290029890FBF4F104FB1100E8B9002053
:10103000029021E0012000FA09F00399084020B154
:101040005A4651464046FFF7E0FB08F101001FFAFF
:1010500080F80098A8EB0000A04206D1DDF80080DF
:101060000AF101001FFA80FA06E009F1010000F020
:10107000FF09B9F1080FC1DB00BF701C86B20198EF
:10108000864292DB00BFB4E72DE9FE4F06460F46CD
:1010900014469846DDE90D5ADDF8309010E0CDE9B0
:1010A000015ACDF800902278434639463046FFF782
:1010B00047FF284605EBD07106EB61018EB2641C38
:1010C00020780028EBD1BDE8FE8F10B50246012044
:1010D00000E050430B00A1F10104E1B2F9D110BDD1
:1010E0002DE9FF4F85B0074691461D46DDE913A661
:1010F00000200490304606EBD071C1F3470B00246A
:1011000034E0281B401EC1B20A20FFF7DEFFB9FB06
:10111000F0F00A21B0FBF1F201FB12080498A0B92B
:10112000681EA04211DDB8F1000F0CD1002004FBB5
:101130000B71CDE900A6029088B22022129B06997D
:10114000FFF7FEFE10E001200490002008F13001BE
:10115000CAB204FB0B71CDE900A6029088B2129BC3
:101160000699FFF7EDFE00BF601CC4B2AC42C8DBBD
:1011700009B0BDE8F08F2DE9FF4F85B007469046D6
:101180001C46DDE91396304606EBD071C1F3470BE0
:101190002249404603F058FD039003F035FD80B22C
:1011A000049000253EE0601B401EC1B20A20FFF7FC
:1011B0008CFF0499B1FBF0F00A21B0FBF1F201FBC6
:1011C000120AA01EA84210D10020A11E01FB0B7123
:1011D000CDE90096029088B22E22129B0699FFF765
:1011E000AFFE681CC5B2601CC4B200200AF1300119
:1011F000CAB205FB0B71CDE90096029088B2129B32
:101200000699FFF79DFE0BE0BE820008CA4E00085B
:101210003E5300082E590008FE6A00080000C8422C
:10122000681CC5B2A542BEDB09B0BDE8F08F2DE950
:10123000F05F0746884615461E46DDF828900024D4
:1012400008EB0600401E83B27819401E82B2414668
:10125000384600F0A7F8A24618E04FF0000B0FE068
:1012600019F8140000F07FF8012101EB440119F88E
:10127000010000F078F8641C0BF101001FFA80FBFC
:10128000B345EDDB0AF101001FFA80FAAA45E4DB61
:10129000BDE8F09F08B501214FF4B07001F0C2F82D
:1012A0004FF48050ADF8000010208DF803000320AB
:1012B0008DF802006946DF4800F0F4FB4FF48051DE
:1012C000DC4800F09CFC48F23200ADF80000102031
:1012D0008DF8030003208DF802006946D64800F01F
:1012E000E1FB48F23201D44800F089FC4FF4A060E1
:1012F000ADF8000010208DF8030003208DF80200E7
:101300006946CE4800F0CEFB4FF4A061CB4800F018
:1013100076FC08BD70B504460221C74800F071FC98
:10132000002519E04FF48051C24800F06AFC04F037
:10133000800020B12021C04800F061FC03E02021A2
:10134000BD4800F05EFC4FF48051BA4800F057FCF5
:101350006006040E681CC5B2082DE3DB0221B64806
:1013600000F04DFC70BD10B504462046FFF7D2FFDB
:1013700010BD10B504462012FFF7CCFFE0B2FFF716
:10138000C9FF10BD10B504464FF40041AA4800F053
:1013900038FC2046FFF7BEFF4FF40041A64800F09E
:1013A0002EFC10BD2DE9F04104460D4616461F46A1
:1013B0002A20FFF7E7FF611C88B2FFF7DAFF711CF4
:1013C00088B2FFF7D6FF2B20FFF7DCFF05F11A01EB
:1013D00088B2FFF7CEFF07F11A0188B2FFF7C9FF05
:1013E0002C20FFF7CFFFBDE8F08110B5FFF752FFCB
:1013F0001021914800F005FC642000F0A2F91021B2
:101400008D4800F0FCFB642000F09BF94FF48071E4
:101410008A4800F0F4FB642000F093F91120FFF7F4
:10142000B1FF782000F08DF9B120FFF7ABFF052068
:10143000FFF799FF3C20FFF796FF3C20FFF793FF53
:10144000B220FFF79FFF0520FFF78DFF3C20FFF73D
:101450008AFF3C20FFF787FFB320FFF793FF0520AB
:10146000FFF781FF3C20FFF77EFF3C20FFF77BFF6B
:101470000520FFF778FF3C20FFF775FF3C20FFF7C2
:1014800072FFB420FFF77EFF0320FFF76CFFC02040
:10149000FFF778FFAB20FFF766FF0B20FFF763FF36
:1014A0000420FFF760FFC120FFF76CFFC520FFF7A6
:1014B0005AFFC220FFF766FF0D20FFF754FF002000
:1014C000FFF751FFC320FFF75DFF8D20FFF74BFFB4
:1014D0006A20FFF748FFC420FFF754FF8D20FFF775
:1014E00042FFEE20FFF73FFFC520FFF74BFF0F2025
:1014F000FFF739FFE020FFF745FF0720FFF733FF35
:101500000E20FFF730FF0820FFF72DFF0720FFF721
:101510002AFF1020FFF727FF0720FFF724FF0220F4
:10152000FFF721FF0720FFF71EFF0920FFF71BFF32
:101530000F20FFF718FF2520FFF715FF3620FFF7D4
:1015400012FF0020FFF70FFF0820FFF70CFF042019
:10155000FFF709FF1020FFF706FFE120FFF712FF5A
:101560000A20FFF700FF0D20FFF7FDFE0820FFF720
:10157000FAFE0720FFF7F7FE0F20FFF7F4FE072023
:10158000FFF7F1FE0220FFF7EEFE0720FFF7EBFE6C
:101590000920FFF7E8FE0F20FFF7E5FE2520FFF703
:1015A000E2FE3520FFF7DFFE0020FFF7DCFE09201A
:1015B000FFF7D9FE0420FFF7D6FE1020FFF7D3FE79
:1015C000FC20FFF7DFFE8020FFF7CDFE3A20FFF77B
:1015D000D9FE0520FFF7C7FE3620FFF7D3FE78209F
:1015E000FFF7C1FE2120FFF7CDFE2920FFF7CAFE3D
:1015F0002A20FFF7C7FE0020FFF7B5FE1A20FFF7ED
:10160000B2FE0020FFF7AFFE6920FFF7ACFE2B20F3
:10161000FFF7B8FE0020FFF7A6FE0120FFF7A3FEAC
:101620000020FFF7A0FEA020FFF79DFE2C20FFF773
:10163000A9FE10BD00200140001401400018014027
:1016400008B50121042000F0EDFEFF20ADF80000F8
:1016500018208DF8030003208DF802006946024827
:1016600000F020FA08BD00000008014010B501F0AC
:1016700058F810BD10B501F099F810BD10B504462A
:10168000204602F09DFF10BD10B53E4800780128AD
:1016900005D100F0F3FF01F0CAF801F00AF810BD1F
:1016A00010B56FF0040000F07EF937480068374944
:1016B000B0FBF1F036490870334800683349B0FB9D
:1016C000F1F441F2883044430520324908804FF05C
:1016D000E020006940F002004FF0E0210861084678
:1016E0004461006940F00100086110BD2DE9F04738
:1016F000074600264FF0E020D0F8149024480078E8
:1017000007FB00F800BFFFF7B1FF4FF0E02085694D
:1017100011E04FF0E0208469AC420CD0AC4202D220
:10172000281B064403E0A9EB040028440644254690
:10173000464500D300E0ECE700BFFFF79BFFBDE8A4
:10174000F08770B504460F480078A0B112480078C1
:1017500088B910480088844206DB0E48008894FB54
:10176000F0F52846FFF78AFF0A48008894FBF0F15D
:1017700000FB114084B24FF47A7104FB01F0FFF7D3
:10178000B5FF70BD750000202400002000127A0013
:10179000380000203A00002068000020014600BF09
:1017A000704700BF414A128802F04002002AF9D077
:1017B000C2B23E4B1B1D1A80704710B586B004465E
:1017C000012144F2040000F02DFE384800F0B8FA80
:1017D0004FF40070ADF8140003208DF816001820A7
:1017E0008DF8170005A9324800F05CF94FF48060CD
:1017F000ADF8140004208DF8170005A92C4800F05E
:1018000051F925208DF8000003208DF801008DF896
:10181000020001208DF80300684600F07AF8019478
:101820000020ADF80800ADF80A00ADF80C00ADF8E6
:1018300010000C20ADF80E0001A91C4800F0C3FAFE
:10184000012240F22551194800F055FB01211748AB
:1018500000F045FB06B010BD10B540F2255113480D
:1018600000F02EFC00B340F22551124800F052FC6B
:101870000E4800F0A5FB1049104A1278885408461B
:101880000E490978405C0A2806D101200C490870ED
:1018900000200A49087004E008480078401C074905
:1018A000087000200749087010BD00000038014092
:1018B0000008014000440040700900204200002060
:1018C00044000020430000200948804709480047A1
:1018D000FEE7FEE7FEE7FEE7FEE7FEE7FEE7FEE7E0
:1018E000FEE7FEE704480549054A064B704700003D
:1018F000730600083101000810120020101C00209F
:10190000101400201014002031490143314A1160A5
:10191000704770B5002100230F22C47804B32D4C0A
:10192000246804F4E064C4F5E064210AC1F104030E
:10193000CA40447804FA03F1847814402143090131
:10194000254C0678A155047804F01F050124AC400D
:1019500005786D11AD0005F1E025C5F8004109E0FD
:10196000047804F01F050124AC401C4D0678761164
:1019700045F8264070BD1A4A0A400243154B1B1F0A
:101980001A60704739B1134A121D12680243114B95
:101990001B1D1A6006E00F4A121D126882430D4B90
:1019A0001B1D1A607047042808D14FF0E021096917
:1019B00041F004014FF0E022116107E04FF0E02117
:1019C000096921F004014FF0E02211617047000025
:1019D0000000FA050CED00E000E400E080E100E02A
:1019E00080FFFF1F10B50446CC48844208D1012176
:1019F000042000F031FD0021042000F02DFD46E020
:101A0000C748844208D10121082000F025FD0021AB
:101A1000082000F021FD3AE0C248844208D10121AB
:101A2000102000F019FD0021102000F015FD2EE01F
:101A3000BD48844208D10121202000F00DFD002185
:101A4000202000F009FD22E0B848844208D101219D
:101A5000402000F001FD0021402000F0FDFC16E0D8
:101A6000B348844208D10121802000F0F5FC002118
:101A7000802000F0F1FC0AE0AE48844207D1012149
:101A8000801500F0E9FC0021A01500F0E5FC10BD78
:101A900010B50121084600F0DFFC0021012000F014
:101AA000DBFC10BD2DE9F041024600250026002098
:101AB00000230024002791F803C00CF00F0591F8D3
:101AC00003C00CF0100CBCF1000F03D091F802C061
:101AD0004CEA050591F800C0BCF1000F31D0146844
:101AE00000202BE04FF0010C0CFA00F3B1F800C01D
:101AF0000CEA03069E4220D183004FF00F0C0CFA33
:101B000003F7BC4305FA03FC4CEA040491F803C054
:101B1000BCF1280F06D14FF0010C0CFA00FCC2F802
:101B200014C00AE091F803C0BCF1480F05D14FF092
:101B3000010C0CFA00FCC2F810C0401C0828D1D3DC
:101B40001460B1F800C0BCF1FF0F34DD5468002010
:101B50002EE000F1080C4FF0010808FA0CF3B1F880
:101B600000C00CEA03069E4221D183004FF00F0C07
:101B70000CFA03F7BC4305FA03FC4CEA040491F8A1
:101B800003C0BCF1280F05D100F1080C08FA0CF8CD
:101B9000C2F8148091F803C0BCF1480F07D100F1DE
:101BA000080C4FF0010808FA0CF8C2F81080401C2D
:101BB0000828CED35460BDE8F0814FF6FF71018054
:101BC000022181700421C170704702460020936891
:101BD0000B400BB1012000E00020704701468868EF
:101BE00080B2704702460020D3680B400BB1012041
:101BF00000E0002070470146C86880B2704701616C
:101C00007047416170470AB1016100E0416170476E
:101C1000C16070474FF480320A4382618161826102
:101C200082698269704702460020434B18684FF66C
:101C30008073184040EA021008433F4B1860704719
:101C40003E49C8617047F0B50A46002300240021D0
:101C5000002500F00046B6F1004F02D1364EF16982
:101C600001E0354E7168C0F3034583B200F44016BD
:101C7000B6F5401F08D121F070612F4E766826F02E
:101C800070662D4F7E6012E000F48016B6F5801F5E
:101C900006D1032606FA05F4A14341F0706106E07F
:101CA000460D360103FA06F6B14341F0706122B1E8
:101CB000460D360103FA06F6314300F00046B6F150
:101CC000004F02D11C4EF16101E01B4E7160F0BD6E
:101CD00030B500228B071C0F0F2303FA04F2164BBA
:101CE00008338C1053F824309343134C08348D1070
:101CF00044F8253023468C1053F824308C07240FE9
:101D000000FA04F423430C4C08348D1044F82530B9
:101D100030BD0A49DC31086070470000000801400E
:101D2000000C014000100140001401400018014067
:101D3000001C014000200140000001400000204242
:101D400010B50446FB48844209D10121880300F004
:101D500083FB00214FF4804000F07EFB32E0F64828
:101D6000844209D10121480400F083FB00214FF493
:101D7000003000F07EFB25E0F048844209D10121CB
:101D8000880400F076FB00214FF4802000F071FB06
:101D900018E0EB48844209D10121C80400F069FB36
:101DA00000214FF4002000F064FB0BE0E548844282
:101DB00008D10121080500F05CFB00214FF48010E0
:101DC00000F057FB10BD2DE9F04786B005460E46E2
:101DD0000024A24600BFA1460027B08900B100BF81
:101DE0002F462C8A4CF6FF700440F08804432C8266
:101DF000AC894EF6F3100440B088318908437189EC
:101E000008430443AC81AC8A4FF6FF400440B089DC
:101E10000443AC8201A800F098FAC648874202D178
:101E2000DDF810A001E0DDF80CA0A88900F4004066
:101E300040B10AEBCA0000EB0A1031684900B0FB60
:101E4000F1F807E00AEBCA0000EB0A1031688900DC
:101E5000B0FBF1F86420B8FBF0F004012009642124
:101E600001FB1089A88900F4004040B1322000EB4A
:101E7000C900B0FBF1F000F00700044308E0322095
:101E800000EB09106421B0FBF1F000F00F000443F7
:101E90002C8106B0BDE8F0874FF416510160002197
:101EA0008180C18001810C214181002181817047A5
:101EB00010B502460020108A4FF2FF0318400B882D
:101EC0004C8823438C882343CC88234318431082B7
:101ED00010BD0021018041808180C180704721B107
:101EE000828942F40052828104E082894DF6FF73B8
:101EF0001A4082817047F0B5034600240026002571
:101F0000002040F66A17B94200D100BF1846C1F35D
:101F1000421401F01F06012707FA06F5012C01D132
:101F20000C3004E0022C01D1103000E014301AB162
:101F300007682F43076002E00768AF430760F0BD02
:101F40001AB1838A0B43838202E0838A8B438382A4
:101F50007047028A4FF6F0731A400282028A0A43DF
:101F60000282704782894FF2FF731A408281828910
:101F70000A438281704721B1828942F00202828144
:101F800004E082894FF6FD731A4082817047028A0D
:101F90004FF6DF731A400282028A0A4302827047B8
:101FA00021B1028A42F48042028204E0028A4BF6A6
:101FB000FF731A4002827047C1F3080282807047A3
:101FC00001468888C0F308007047818941F001010B
:101FD00081817047028BD2B20283028B42EA0122D6
:101FE00002837047028B02F47F420283028B0A4312
:101FF0000283704721B1828A42F02002828204E08B
:10200000828A4FF6DF731A408282704721B1828A3A
:1020100042F01002828204E0828A4FF6EF731A4087
:102020008282704721B1828A42F00802828204E0F3
:10203000828A4FF6F7731A408282704721B18289F3
:1020400042F40042828103E08289C2F30E0282815F
:10205000704721B1828A42F40062828204E0828A5F
:102060004FF2FF731A4082827047828A4FF6FB73E9
:102070001A408282828A0A438282704721B1828A10
:1020800042F00202828204E0828A4FF6FD731A4017
:102090008282704702460020B1F5007F00D100BF68
:1020A00013880B400BB1012000E00020704701F4C1
:1020B0000072B2F5007F00D100BFCA4302807047B2
:1020C00070B50246002400230025002040F66A1661
:1020D000B14200D100BFC1F3421501F01F03012638
:1020E00006FA03F3012D02D19689334006E0022D52
:1020F00002D1168A334001E0968A33400C12012641
:1021000006FA04F41688344013B10CB1012000E043
:10211000002070BD10B50022002340F66A14A142D1
:1021200000D100BF0A1201249440A3B2DC43048012
:1021300010BD00000038014000440040004800404D
:10214000004C004000500040DF48006840F00100B3
:10215000DD49086008464068DC490840DA494860C3
:1021600008460068DA490840D74908600846006810
:1021700020F4802008600846406820F4FE00486093
:102180004FF41F0088607047CF49096821F48031FF
:10219000CD4A11601146096821F480211160B0F523
:1021A000803F03D0B0F5802F0ED106E0C649096804
:1021B00041F48031C44A116007E0C349096841F421
:1021C000A021C14A116000E000BF00BF704710B5F8
:1021D00001460022002300204A11012A02D1BA4CF4
:1021E000236806E0022A02D1B74C236A01E0B64C0C
:1021F000636A01F01F02012494401C400CB10120CD
:1022000000E0002010BD38B500200090002400251B
:1022100000BF3120FFF7DBFF05460098401C00900F
:102220000098B0F5A06F01D0002DF2D03120FFF75B
:10223000CEFF08B1012400E00024204638BD01464D
:102240000020A14A106820F0F80040EAC1001060A8
:102250007047A04908607047024600209A4B5868B2
:1022600020F47C1042EA01031843974B58607047F2
:1022700098490866704701460020934A506820F04C
:1022800003000843506070478F48406800F00C001E
:102290007047014600208C4A506820F0F000084347
:1022A0005060704701460020874A506820F4E06083
:1022B00008435060704701460020834A506820F46C
:1022C000605040EAC1005060704729B17E4A527A9E
:1022D00002437D4B5A7204E07B4A527A82437A4B26
:1022E0005A7270477B49D831086070470146002018
:1022F000754A506820F44040084350607047002100
:10230000714A20321170704A82F82010012802D0E0
:1023100004280AD104E001216B4A2032117005E043
:102320000521694A2032117000E000BF00BF7047EC
:102330006949086070476449096A0143624A116249
:102340007047654944390860704730B50021002264
:10235000002400235C4D6D6805F00C0121B10429B7
:1023600005D0082923D105E05C4D056022E05B4DD6
:1023700005601FE0544D6D6805F47012524D6D6894
:1023800005F48034022505EB92421CB9544D5543A7
:1023900005600BE04C4D6D6805F400351DB1504DE6
:1023A0005543056002E04D4D5543056002E04B4D3D
:1023B000056000BF00BF444D6D6805F0F0010909DC
:1023C000484D6B5C0568DD4045603F4D6D6805F428
:1023D000E061090A434D6B5C4568DD4085603A4D1C
:1023E0006D6805F46051C90A3E4D6B5C4568DD407F
:1023F000C560354D6D6805F44041890B3A4D6B5C05
:10240000C568B5FBF3F5056130BD29B12E4A5269A7
:1024100002432D4B5A6104E02B4A526982432A4BF6
:102420005A61704729B1284A92690243264B9A6142
:1024300004E0254A92698243234B9A61704729B18F
:10244000214AD2690243204BDA6104E01E4AD26974
:1024500082431D4BDA61704729B11B4AD26802439F
:10246000194BDA6004E0184AD2688243164BDA60EE
:10247000704729B1144A12690243134B1A6104E0F0
:10248000114A12698243104B1A6170471249403950
:10249000086070470F49C86470470B49C87170479E
:1024A0000948406A40F08070074948627047014619
:1024B0000020054A92680A400AB1012000E000208D
:1024C0007047014988727047001002400000FFF811
:1024D000FFFFF6FE000042428004424200127A00F2
:1024E00000093D004500002055000020002400BFE9
:1024F00000BF02F095F90446FE480068401CFD4903
:102500000860204602F090F902F036F9F1E700B5D4
:1025100087B0032000218022F74BCDE90132CDE9BD
:1025200003104FF6FF703F23F44A0090AFF24300D0
:1025300001F055FD06AAF2A13F2001F0B9FE07B057
:1025400000BD04E0002200F8012B4A1E91B20029D0
:10255000F8D1704770B5C821ED48FFF7F2FF0023AE
:102560000FE0581C85B203EB8300E94901EB8004BE
:1025700005EB850001EB8006002020706660581C8A
:1025800083B2092BEDD303EB8300E14901EB800417
:102590000020207060600846DE49086070BD70B59C
:1025A0004FF46771DC48FFF7CCFF4FF48071DB48D4
:1025B000FFF7C7FF002413E0601CC5B2C4EBC400E2
:1025C00000EB4000D44901EB8003C5EBC50000EBF4
:1025D000400001EB80065E61D1A0D864601CC4B2EB
:1025E0000A2CE9D3C4EBC40000EB4000CA4901EB5C
:1025F000800300205861CAA0D8640020C94908603F
:10260000C548C949086070BD0021C84A1170002042
:1026100004E00021C64A1154411CC8B20828F8D36E
:102620000021C44A1170C44A1170C44A1160C44ADE
:10263000116070470020C3490860C3490870C3494E
:102640000870C3490870C3490870C3490860A949A4
:102650000860704710B502F08BF8FFF7EBFFFFF74B
:10266000D3FFFFF79CFFFFF775FF00F0BFFE01F0FF
:102670009CFBFFF74CFF02F07CF810BDB5480078DA
:10268000012808D1B0480078FF2804D2AE4800786D
:10269000401CAD4908707047B049A44A1278885C64
:1026A000A349095CAD4A515C01EBC001A24A11701B
:1026B000704710B50024A7480078012830D102F0F7
:1026C000AFF80446A048007820B19F480078401E2B
:1026D0009D4908709C480078F8B99C480078E0B99A
:1026E000FFF7DAFF8D489449097850F821009349A3
:1026F0000860914800788F49097888420DD08F484A
:102700000068806B401C8D490968886392480068A6
:10271000401C9149086002F0A2F8204602F084F8BB
:1027200010BD10B500248B480078012811D102F0AB
:1027300077F804468448007840B984480078FF2838
:1027400004D282480078401C80490870204602F07C
:102750006BF810BD10B5002402F062F804467A4808
:102760000078F8B979480078E0B9FFF795FF6B4831
:102770007149097850F82100704908606E48007866
:102780006C49097888420DD06C480068806B401C09
:102790006A490968886370480068401C6E4908608F
:1027A00002F056F8204602F03FF810BD10B50024A4
:1027B00068480078012821D102F032F804466348C5
:1027C0000078C0B161480078401E60490870084632
:1027D000007860B95C48007828B9204602F024F8F7
:1027E000FFF7B8FF0AE0204602F01EF806E0204698
:1027F00002F01AF802E0204602F016F810BD10B5FB
:102800005448007890B9FFF747FF4B480078494992
:10281000087042484849097850F821004749086043
:10282000084600684649086002F001F810BD70B51E
:10283000002601F0F2FF01F0F3FF06464148006870
:10284000401C40490860304601F0EEFF41480078E6
:1028500001284DD14248007820B1012804D0022837
:1028600009D103E001250BE0002509E00125012045
:102870003B49087004E0012500203949087000BF79
:1028800000BF05B970BD274804686EE001F0C8FFBD
:102890000646E06A50B3E06A401EE062E06A28BB88
:1028A00094F8300000F0370040B114F8300F00F019
:1028B000C800207001206070303C02E0002084F8E5
:1028C000310094F8300000F0080078B93434A07872
:1028D0001649097808431549087020781449085C9E
:1028E0006178084314F83419114A5054646939E086
:1028F0003FE0000078000020980A0020940C00209F
:1029000075432F4F532D49492049646C65000000E1
:102910008009002060000020980D0020980C002005
:102920003F00000088000020800000206C00002094
:102930006D0000206A0000206B0000208400002051
:102940007C00002094000020680000206900002026
:1029500076000020750000205C000020E68700085B
:102960008C000020304601F05FFF94F832003F28D1
:102970008CD100BF86E740F223107047704710B536
:1029800090F8342001F10B039B5C90F83540A34391
:1029900001F10B04A35423469B5C23B98B7A90F876
:1029A0003640A3438B7210BD2DE9F04F05460F460C
:1029B00090469946A87A99490E5C05F10B00805D16
:1029C00011F800B00BEBC60000F0FF0A944850F875
:1029D0002A4000202034E0602760207C20EA0800A4
:1029E000207484F81190207C203C00F0080068B925
:1029F00094F836008B49097808438A4908708A4858
:102A0000805D94F83510084387498855294620464B
:102A1000FFF7B5FF5046BDE8F08F10B5834A126846
:102A2000D061824A126892F8343000F10B02D25C15
:102A30007E4B1B6893F835301A437C4B1B6893F828
:102A4000344000F10B031A55827A784B1B6893F8D7
:102A500036301A438272754A126892F83410724AFC
:102A6000525C724B1B6893F835309A436E4B5A5444
:102A70001A46525C42B96D4A126892F83630694A79
:102A800012789A43674B1A7010BD014600228A7271
:102A9000002005E0002301F10B021354421CD0B2C8
:102AA0000828F7D3704705E011F8013B00F8013B17
:102AB000531E9AB2002AF7D170470146002002E067
:102AC000491C421CD0B20A78002AF9D170477CB563
:102AD000002514E06946284601F068FC064666B900
:102AE0004F4850F8254044B1012C06D0D4E90201EA
:102AF00000EB810060640198A064681CC5B23F2DA2
:102B0000E8D97CBD2DE9F84F05460F469046994619
:102B1000DDE90AAB0020009001F082FE00904448FD
:102B20000468002C75D0183454F8040C404908602F
:102B3000009801F079FE44F8187CA57600202076F4
:102B40006076606144F814BC44F80CAC44F8108C16
:102B50000C9824F8080C24F8069C0020E077E81074
:102B6000207705F00700E076217F01208840A077DC
:102B7000E17E01208840607700206060E060A06016
:102B80002062A0626062E0622063AFF26C2060634A
:102B9000183C002606E0002104F1500040F8261001
:102BA000701CC6B2002EF6D0204601F035FE20463D
:102BB00001F0E0FD01F034FE0090194840F8254096
:102BC0001C48006860610020A0611A48006810B1CC
:102BD000184800688461174804603434A0781149AB
:102BE000097808430F49087020780F49085C61781C
:102BF000084314F834190C4A50540F480078401C0C
:102C00000D490870009801F00FFE0020BDE8F88F14
:102C1000FFE7009801F008FE4220F7E7E68700088A
:102C2000980C00206C0000206D0000207C0000202B
:102C30008000002088000020760000202DE9F05F51
:102C400004460F4691461E464FF0000B207805289B
:102C500004D0012030700020BDE8F09F09F0800A08
:102C6000BAF1000F04D029F080094FF0010801E00B
:102C70004FF000080020307001F0D2FD8346B9F11A
:102C8000000F2CD0B9F1010F3BD0B9F1020F03D0E6
:102C9000B9F1030F46D111E0208900EA0705BD42D2
:102CA00006D1B8F1010F05D12089A843208101E0A8
:102CB00070203070584601F0B7FD3AE0208900EAF4
:102CC000070535B1B8F1010F05D12089A84320814E
:102CD00001E070203070584601F0A6FD29E02089FF
:102CE00027EA0005BD4206D1B8F1010F05D12089C0
:102CF0002843208101E070203070584601F094FD97
:102D000017E0208927EA000535B1B8F1010F05D198
:102D100020892843208101E070203070584601F05E
:102D200083FD06E0584601F07FFD00256F203070DE
:102D300000BF00BF28468FE72DE9F04106460D464B
:102D40000027FA48007820B1102028700020BDE844
:102D5000F08101F065FD0746F548046884B100681C
:102D60004068F349086005202070268100206060DB
:102D7000F0A0E060384601F057FD0020287004E024
:102D8000384601F051FD722028702046DFE730B54B
:102D900001464A6808682AB9CC68606028B10025F5
:102DA000456002E0106000B142608B6800255D6202
:102DB00030BDF0B506460F46B46800202834606088
:102DC0002780207A00F0DF00207200206072207AD5
:102DD000283C88B93434A078D74909780843D649C3
:102DE00008702078D549085C6178084314F83419D4
:102DF000D24A5054012500E000253046FFF7C7FFB6
:102E00002846F0BD2DE9F0470446894615464FF0A7
:102E1000000AC648007820B10F2028702046BDE87F
:102E2000F0872078052803D0012028702046F6E797
:102E300001F0F6FC8246606808B1012700E0002737
:102E4000B9F1000F03D0B9F1010F3CD119E08FB9EE
:102E5000B8A0E06000202070B548006860600020E5
:102E60002081B3480460504601F0DEFC0020287049
:102E7000002605E0504601F0D7FC49202870264680
:102E800028E0D4F8048005E000214046FFF791FFD8
:102E9000D8F80080B8F1000FF6D1A6A0E0600020BD
:102EA0002070A3480068606000202081A048046072
:102EB000504601F0B9FC012F01D1FFF74BFC002077
:102EC0002870002606E0504601F0AEFC072028706E
:102ED000264600BF00BF3046A1E72DE9F041054678
:102EE0000E46144600279148007820B1112020702A
:102EF0000020BDE8F08101F093FC07462878052802
:102F000006D0384601F090FC012020700020F0E748
:102F1000E86830603068FFF7D0FD8046384601F041
:102F200083FC002020704046E3E72DE9F041054690
:102F30000E46144600277D48007818B112202070F4
:102F4000BDE8F08101F06CFC07462878052805D023
:102F5000384601F069FC01202070F1E7EE60384648
:102F600001F062FC0020207000BFE9E7F0B51446D4
:102F7000059E734F3F6897F8307047F02007DFF8E1
:102F8000C0C1DCF800C08CF830700027DFF8B0C199
:102F9000DCF800C08CF83170694F3F68FE62684F02
:102FA0003F6879620C828B74654F3F688F60476819
:102FB0000F6000274F60C860456805B169604160D7
:102FC0005F4F3F6897F834205C4FBF5CDFF870C1FB
:102FD000DCF800C09CF835C027EA0C07DFF85CC1BC
:102FE0000CF802706746BF5C5FB9554F3F6897F8B1
:102FF00036C0514F3F7827EA0C07DFF83CC18CF808
:103000000070F0BD2DE9F04F89B005460F4691469E
:103010009A46129E002002904448007828B102206F
:103020003070002009B0BDE8F08F4648007818B134
:103030000D2030700020F5E72878052803D0012006
:1030400030700020EEE709F0800BBBF1000F04D0D8
:1030500009F07F094FF0010801E04FF0000801F08E
:10306000DFFB0290B9F1000F4AD0B9F1010F78D01F
:10307000B9F1020F03D0B9F1030F71D120E0288913
:1030800000EA0704BC420FD1B8F1010F02D1288930
:10309000A04328812A4800680485029801F0C4FBF7
:1030A000002030702046BDE74B463A4604A928462A
:1030B000CDF800A0FFF75AFF029801F0B5FB78E0C9
:1030C000288900EA07047CB1B8F1010F02D12889F0
:1030D000A04328811A4800680485029801F0A4FBE7
:1030E0000020307020469DE74B463A4604A928460A
:1030F000CDF800A0FFF73AFF029801F095FB58E0E9
:10310000288927EA0004BC421ED1B8F1010F02D180
:103110002889204328810A4800680485029801F024
:1031200083FB0020307020467CE71AE06800002016
:10313000640000203F0000006C0000206D000020B3
:103140007C000020690000204B463A4604A928462E
:10315000CDF800A0FFF70AFF029801F065FB28E018
:103160001FE0288927EA00047CB1B8F1010F02D1E1
:10317000288920432881B14800680485029801F01D
:1031800053FB0020307020464CE74B463A4604A9DA
:103190002846CDF800A0FFF7E9FE029801F044FBB5
:1031A00007E0029801F040FB00246F2030702046B9
:1031B00038E700BFFFF7CEFA01F032FB02909F48DC
:1031C000006890F8310020B39C48006890F8310006
:1031D000039000209949096881F8310004A8FFF79D
:1031E000D6FD00209549096881F83000029801F069
:1031F0001BFB00240398012805D0022802D10E20D1
:10320000307003E000BF0A20307000BF00BF2046CE
:1032100008E78A480068048DB8F1010F1ED1B9F1A2
:10322000000F0ED0B9F1010F0CD0B9F1020F03D08D
:10323000B9F1030F0AD100E000BF2889A04328811B
:103240000BE000BF28892043288106E0029801F0A6
:10325000EBFA6F2030700020E4E600BF029801F026
:10326000E3FA002030702046DCE670B5002501F05E
:10327000D7FA054671480068048D284601F0D4FA53
:10328000204670BD2DE9FC5F0446894692461E46E5
:10329000002000902078052804D001203070002004
:1032A000BDE8FC9F01F0BCFA0090BAF1000F03D01A
:1032B000BAF1010F0AD104E0208920EA0900208137
:1032C0000BE0208940EA0900208106E0009801F027
:1032D000ABFA712030700020E2E700BF4FF0000B26
:1032E000656855E0A87C40B3012838D0022802D098
:1032F000032844D111E02089298A00EA0107288A9D
:10330000B84209D139462846FFF753FD8046B8F147
:10331000010F01D14FF0010B38E02089298A00EA22
:1033200001074FB139462846FFF743FD8046B8F103
:10333000010F01D14FF0010B28E0288A218920EAF2
:103340000107288AB84209D139462846FFF731FDDE
:103350008046B8F1010F01D14FF0010B16E0288A29
:10336000218920EA01074FB139462846FFF721FDA0
:103370008046B8F1010F01D14FF0010B06E0009833
:1033800001F052FA6F203070002089E700BF2D68ED
:10339000002DA7D1009801F047FABBF1010F01D130
:1033A000FFF7D8F901F03CFA0090208901900098CD
:1033B00001F03AFA00203070019871E72DE9F041F0
:1033C00004460D4600272078052804D001202870E7
:1033D0000020BDE8F08101F023FA0746268938462F
:1033E00001F022FA002028703046F2E72DE9F04182
:1033F00050211348FFF7A5F800250EE0681C86B29F
:103400000F4800EB051400EB0617002020706760E2
:10341000AFF2E020E060681C85B2042DEED30848CE
:1034200000EB0514002020706060AFF2F820E0602F
:10343000034804490860BDE8F08100007C000020DA
:10344000480A00206400002070B504460026207859
:10345000012801D0002070BD01F0E2F90646656840
:1034600000206060304601F0DFF92846F3E770B5D0
:1034700005460026E348007808B1002070BD01F041
:10348000CFF90646E0480468006820B1DE480068CD
:103490004068DD490860304601F0C6F93CB10120C2
:1034A00020700020208165602046FFF7EEFA20465C
:1034B000E4E72DE9F0470446884615464FF0000939
:1034C0002078012804D0012028702046BDE8F0872C
:1034D000CC48007818B10F2028702046F6E701F09C
:1034E0009FF98146A07A08B1012700E00027B8F1D2
:1034F000000F03D0B8F1010F35D117E07FB90020DC
:103500002070C1480068606000202081BE480460CF
:10351000484601F089F900202870002605E0484659
:1035200001F082F949202870264623E005E00023B7
:10353000022219462046FFF737FAA07A0028F6D172
:103540002070B1480068606000202081AE480460AF
:10355000484601F069F9012F01D1FFF7FBF800207F
:103560002870002606E0484601F05EF90720287022
:10357000264600BF00BF3046A8E72DE9F0410546CA
:103580000F4614464FF000082878012804D0012087
:1035900020700020BDE8F0819A48007818B1022020
:1035A00020700020F6E79948007818B10D202070AF
:1035B0000020EFE701F034F980466E6846B1002044
:1035C0006860404601F030F9002020703046E1E7A5
:1035D0008F48006890F8300040F002008C4909687C
:1035E00081F8300000208A49096881F83100884854
:1035F0000068C7622846FFF710FA404601F014F948
:10360000FFF7A8F801F00CF980468148006890F8AF
:10361000310020B101280DD002280AD105E07C48F4
:103620000068066A002020700DE000260E20207041
:1036300009E000BF294676480068FFF7A0F9002698
:103640000A20207000BF00BF00207149096881F87E
:1036500030006F49096881F831006D490968C86117
:103660006B4909680862404601F0DEF8304691E790
:103670002DE9F04104460F4615464FF0000820782A
:10368000012804D0012028700020BDE8F08101F05D
:10369000C7F88046A07A20B300267FB1012F0CD155
:1036A00007E002231A4600212046FFF77DF9701C2F
:1036B000C6B2A07A0028F4D109E000BF02231A465E
:1036C00000212046FFF770F9701CC6B200BF00BF92
:1036D000404601F0A9F8FFF73DF80E20287030466B
:1036E000D3E7404601F0A0F80020287000BFCCE7E7
:1036F00070B504460D4600262078012801D001202F
:1037000070BD01F08DF80646A07A60B10023022258
:1037100029462046FFF748F9304601F085F8FFF7C3
:1037200019F80020ECE7606820B1304601F07CF821
:103730001420E5E76560304601F076F80020DFE709
:103740002DE9F04104460E46154600272078012851
:1037500002D00120BDE8F08101F062F80746A07AAE
:10376000E8B105F0010050B105E000230222314626
:103770002046FFF719F9A07A0028F6D105E00023CA
:10378000022231462046FFF70FF9384601F04CF887
:1037900005F0040008B9FEF7DDFF0020DAE76068F5
:1037A00020B1384601F040F81420D3E7666038466F
:1037B00001F03AF80020CDE72DE9F04704460D4628
:1037C0004FF000092078012802D00120BDE8F087E1
:1037D00001F026F88146A07A287304F10B0705F161
:1037E0000408002605E017F8010B08F8010B701C0F
:1037F000C6B2082EF7D360682860484601F014F876
:103800000020E3E76800002060000020690000203D
:103810007C0000202DE9F04106460D464FF00008DF
:103820003078022804D0012028700020BDE8F08103
:1038300000F0F6FF80467468E08A78B12169081DBF
:1038400020610F68E08A401EE082A16820698842FA
:1038500001D1606820610020287002E01F202870DC
:103860000027404600F0E0FF3846DFE72DE9F04151
:1038700006460F464FF00008F748007810B10020C8
:10388000BDE8F08100F0CCFF8046F4480568006890
:1038900020B1F24800684068F0490860404600F0F6
:1038A000C3FF3DB300F0BCFF8046ED480468C4B1DF
:1038B00000680068EA490860404600F0B5FF6660AD
:1038C00006EB8700A060E6602661A7820020E08208
:1038D00002202870002028816C602846FFF7D5F868
:1038E00008E0DE4800686860DC480560404600F09B
:1038F0009BFF00252846C3E72DE9F047044689468B
:1039000015464FF0000A2078022804D001202870C4
:103910002046BDE8F087D048007818B10F20287005
:103920002046F6E700F07CFF8246A07A10B14FF007
:10393000010801E04FF00008B9F1000F03D0B9F120
:10394000010F45D11FE0B8F1000F15D16668C448DA
:1039500000683060C248066000202070BF480068E0
:10396000606000202081BD480460504600F05CFF8C
:1039700000202870002705E0504600F055FF492040
:10398000287027462BE005E0002304221946204634
:10399000FFF70AF8A07A0028F6D16668B0480068F8
:1039A0003060AF48066000202070AC48006860605E
:1039B00000202081A9480460504600F035FFB8F18E
:1039C000010F01D1FEF7C6FE00202870002706E097
:1039D000504600F029FF07202870274600BF00BF8F
:1039E000384696E770B50546002600F019FF0646F2
:1039F0006C686068E060606820610020E0823046AA
:103A000000F012FF002070BD2DE9F0470746884600
:103A100015464FF000093878022804D0012028709C
:103A20000020BDE8F0878C48007818B1022028708B
:103A30000020F6E78B48007818B10D202870002090
:103A4000EFE700F0EDFE81467C68E08A98B12169DD
:103A5000081D20610E68E08A401EE082A16820698E
:103A6000884201D160682061484600F0DDFE0020F8
:103A700028703046D5E77C48006890F8300040F068
:103A800004007949096881F8300000207649096806
:103A900081F8310074480068C0F82C803846FEF781
:103AA000BCFF484600F0C0FEFEF754FE00F0B8FE32
:103AB00081466D48006890F8310020B101280DD092
:103AC00002280AD105E068480068066A00202870CC
:103AD0000DE000260E20287009E000BF394662483C
:103AE0000068FEF74CFF00260A20287000BF00BFC8
:103AF00000205D49096881F830005B49096881F858
:103B0000310059490968C86157490968086248463F
:103B100000F08AFE304684E72DE9F04104460F4666
:103B200015464FF000082078022804D001202870A4
:103B30000020BDE8F08100F073FE8046A07A20B33B
:103B400000267FB1012F0CD107E0022304220021BF
:103B50002046FEF729FF701CC6B2A07A0028F4D1D7
:103B600009E000BF0223042200212046FEF71CFFCB
:103B7000701CC6B200BF00BF404600F055FEFEF705
:103B8000E9FD0E2028703046D3E7404600F04CFE99
:103B90000020287000BFCCE72DE9F04105460E4615
:103BA00000272878022802D00120BDE8F08100F02B
:103BB00037FE0746A87A60B1002304223146284622
:103BC000FEF7F2FE384600F02FFEFEF7C3FD0020A0
:103BD000EBE76C68E08AA18A884204DB384600F093
:103BE00023FE1E20E1E7E168081DE0600E60E08A28
:103BF000401CE082D4E90210884201D16068E06094
:103C0000384600F011FE0020CFE72DE9F0410546CF
:103C10000E4600272878022802D00120BDE8F08156
:103C200000F0FEFD0746A87A60B100230422314669
:103C30002846FEF7B9FE384600F0F6FDFEF78AFD8D
:103C40000020EBE76C68E08AA18A88420EDB3846E8
:103C500000F0EAFD1E20E1E768000020600000207F
:103C600090000020690000207C000020616820692D
:103C7000884201D1A06820612069001F206120696D
:103C80000660E08A401CE082384600F0CDFD00204E
:103C9000C4E72DE9F04105460F4616464FF00008EF
:103CA0002878022802D00120BDE8F08100F0B8FD9C
:103CB0008046A87AE8B106F0010050B105E0002383
:103CC000042239462846FEF76FFEA87A0028F6D16E
:103CD00005E00023042239462846FEF765FE4046EB
:103CE00000F0A2FD06F0040008B9FEF733FD002045
:103CF000DAE76C68E08AA18A884204DB404600F07B
:103D000093FD1E20D0E706F0020058B161682069DB
:103D1000884201D1A06820612069001F20612069CC
:103D2000076009E0E168081DE0600F60D4E9021057
:103D3000884201D16068E060E08A401CE082404631
:103D400000F072FD0020AFE72DE9F04705460C4674
:103D50004FF0000A2878022802D00120BDE8F08741
:103D600000F05EFD8246A87A207405F10B0804F18C
:103D70000809002705E018F8010B09F8010B781C69
:103D8000C7B2082FF7D36E68F08A18B1306900689F
:103D9000206001E000202060F08AA080B08AE080EE
:103DA000504600F041FD0020D8E72DE9F041782190
:103DB0001048FEF7C6FB00240DE0601C86B204EB41
:103DC00044000C4901EBC00506EB460001EBC007BF
:103DD0002F60601C84B2042CEFD304EB440005492F
:103DE00001EBC00500202860084603490860BDE8D3
:103DF000F081000034110020900000202DE9FF5FC9
:103E0000814688460020009000F00AFD0090F948A5
:103E100050F8280030B1009800F006FD282004B0CA
:103E2000BDE8F09FB9F1FF0F03D1F348006890F8A7
:103E30003290F04850F8294024B9009800F0F4FC82
:103E40002920ECE7012C04D1009800F0EDFC432080
:103E5000E5E74FEAE80708F0070003900120B840C3
:103E600000F0FF0A01210398814001F0FF0B0020C0
:103E7000E04941F82900084640F8284014F8346F1A
:103E8000A07802906078343C0190DC48815D019814
:103E90000140D1B1D948805D01998843D7498855FF
:103EA0000846805D28B9D648007802998843D449ED
:103EB0000870D348007840EA0A00D1490870CF481A
:103EC000C05D40EA0B00CD49C855E569D5B105F1A3
:103ED0000B00805D0199884305F10B018855084668
:103EE000805D18B9A87A02998843A872A87A40EA36
:103EF0000A00A87205F10B00C05D40EA0B0005F155
:103F00000B01C85584F8328084F83470039884F823
:103F1000330084F836A084F835B0009800F084FCB3
:103F2000B8480078012801D1FEF714FC002076E79C
:103F30002DE9FE4F06460F4690461C464FF00009FD
:103F400000F06EFC8146B048007828B1484600F089
:103F50006BFC3C20BDE8FE8FA64850F8240060BBF7
:103F60000120A44941F82400484600F05DFC0023EC
:103F700042463946304600F001FC8246002000905F
:103F8000019003460246514602902046FEF7BAFDD4
:103F9000054635B99B48007801280CD1FEF7DAFBBD
:103FA00009E000F03DFC81460020924941F82400E0
:103FB000484600F039FC2846CCE7484600F034FC7F
:103FC0002820C7E702F0010343B102F002032BB13E
:103FD00002E0491E002308C00029FAD170472DE9EC
:103FE000F04F85B081468A4693461C46DDE90F783E
:103FF000129D0020039000F013FC0390824800788B
:1040000030B1039800F010FC3C2005B0BDE8F08F03
:10401000784850F8240088BB0120764941F82400F4
:10402000039800F001FC2A4641463846FFF7CAFFD4
:104030002B465A465146484600F0A0FB0490119882
:10404000CDE9008002953A4620460E9B0499FEF782
:1040500059FD064636B96B48007801280CD1FEF7A9
:1040600079FB09E000F0DCFB03900020614941F896
:104070002400039800F0D8FB3046C6E7FFE703981A
:1040800000F0D2FB2820C0E72DE9F04105460027CB
:104090005D48007810B14020BDE8F0813F2D01D18E
:1040A0003E20F9E700F0BCFB0746FF2D03D1524844
:1040B000006890F832504F4850F8254024B93846EF
:1040C00000F0B2FB4320E7E7012C04D1384600F0B2
:1040D000ABFB3D20E0E714F8340F4849085C6178F9
:1040E00088432178454A505414F834091146085C35
:1040F00030B994F836104248007888434049087037
:10410000E06918B12046E169FEF739FC666A16B12C
:104110003046FEF73CFE0020E06284F8300084F870
:1041200031003A480078FF2804D238480078401C13
:1041300036490870384600F077FBFEF71FFC00F0A8
:104140006FFB07463148007820B130480078401EA8
:104150002E490870204600F00EFB2D480078401EC6
:104160002B4908700020234941F82500A06930B987
:1041700000206169886127496069086005E0D4E929
:1041800005014861D4E90510886123480068606131
:104190002148046021A0E064384600F045FB19483E
:1041A0000078012801D1FEF7D5FA002074E72DE947
:1041B000F041044600273F2C02D13E20BDE8F081AB
:1041C000FF2C0BD100F02CFB07460B48006890F841
:1041D0003760384600F028FB3046EFE700F020FB60
:1041E0000746044850F82450D5B9384600F01CFB67
:1041F0004320E3E7980C00207C0000206D000020A5
:104200006C0000207500002068000020690000207C
:104210007600002088000020800000203F00000081
:10422000012D04D1384600F0FFFA3D20C6E73F20BB
:1042300085F83700384600F0F7FA0020BEE72DE990
:10424000F04706460F4614464FF00008D64800785F
:1042500020B1112020700020BDE8F08700F0E0FAC6
:104260008046FF2E03D1D148006890F83260D048D4
:1042700050F8265035B9404600F0D6FA4320207059
:104280000020E9E7012D06D1404600F0CDFA432099
:1042900020700020E0E7E86C38603868FEF70DFC1D
:1042A0008146404600F0C0FA002020704846D3E71F
:1042B0002DE9F04106460F4614464FF00008BA4873
:1042C000007818B112202070BDE8F08100F0A8FA43
:1042D0008046FF2E03D1B548006890F83260B4489C
:1042E00050F826502DB9404600F09EFA4320207029
:1042F000EAE7012D05D1404600F096FA43202070F0
:10430000E2E7EF64404600F08FFA0020207000BF23
:10431000DAE770B50546002600F082FA0646A448A2
:1043200050F8254024B9304600F07EFA462070BD92
:10433000012C04D1304600F077FA4320F7E794F8D7
:10434000300000F0080060B314F8300F00F0F70000
:10435000207014F83009F8B9E06AC8B93434A0788C
:104360009449097808439349087020789249085C79
:104370006178084314F834198F4A5054304600F0DD
:1043800053FA8E480078012809D1FEF7E3F906E0D8
:10439000304600F049FA02E0304600F045FA0020CD
:1043A000C5E7304600F040FA4420C0E72DE9F04769
:1043B00007460D464FF0000A00202860686000F0B4
:1043C0002FFA8246FF2F03D17848006890F83270A8
:1043D000774850F827402CB9504600F025FA432082
:1043E000BDE8F087012C04D1504600F01DFA4320AF
:1043F000F6E7207C00F0010020B9504600F014FAE6
:104400004520EDE70026D4F80C90D4F808805046FB
:1044100000F00AFA00E0761C58F8041B0029FAD0D4
:10442000B0002860A9EB0600800068600020D7E794
:104430002DE9F04105464FF0000800F0F1F9804603
:10444000FF2D05D15948006890F83250012608E048
:104450005648006890F83200A84201D1012600E0D9
:104460000026534850F825402CB9404600F0DCF9AE
:104470004820BDE8F081012C04D1404600F0D4F979
:104480004320F6E794F834704B48C05D94F835103B
:1044900088434949C8550846C05D30B994F836107C
:1044A0004448007888434349087094F8300040F04D
:1044B000080084F83000404600F0B6F9012E01D122
:1044C000FEF748F90020D4E72DE9F04105460E46F5
:1044D000002700F0A5F90746FF2D03D133480068F7
:1044E00090F83250324850F825402CB9384600F048
:1044F0009BF92920BDE8F081012C04D1384600F059
:1045000093F94320F6E7542221463046FEF7CBFAD2
:10451000384600F089F90020ECE72DE9F047044621
:104520000E4617464FF0000900F07AF98146FF2C3D
:1045300002D11E48056802E01D4850F8245005F1DC
:10454000500050F82680484600F06EF90020387080
:104550004046BDE8F0872DE9F04704460E46174671
:1045600098464FF0000900F05BF98146FF2C02D11C
:104570000E48056802E00E4850F8245005F150003E
:1045800040F82670484600F04FF9002088F80000F7
:10459000BDE8F08710B50548006800F03FF9FF203E
:1045A000FFF772FD10BD0000680000207C000020B5
:1045B000980C00206C0000206D0000207500002089
:1045C00070B5054600266348007800B170BD6248AA
:1045D000007800B1FAE71DB300F022F906465F4803
:1045E000006890F834405E48005D5C49096891F8C5
:1045F000351088435A4908550846005D40B9574868
:10460000006890F83610574800788843554908707C
:1046100052480068C562304600F006F9FEF79AF885
:1046200000BFD3E72DE9F04104460D4616461F466C
:104630004848007810B15520BDE8F0814648007820
:1046400008B13220F8E7B81CC82148434FF47A710A
:10465000B0FBF1F14FF461606043C5EB051200EB74
:104660008200304400EBC00202EB001001EBC008F6
:104670004046FFF7A5FF0020DEE770B5054600269F
:104680003F2D01D32A2070BD00F0CAF806463648F7
:1046900050F8254024B9304600F0C6F84320F2E730
:1046A000012C04D1304600F0BFF84320EBE7E06A6C
:1046B00020B9304600F0B8F85020E4E70020E0626E
:1046C00094F8300000F0370040B114F8300F20F0BB
:1046D0003700207001206070303C02E0002084F838
:1046E000310094F8300000F00800A8B93434A07804
:1046F0001C49097808431B49087020781849085C50
:104700006178084314F83419154A5054304600F0C3
:104710008BF8FEF71FF802E0304600F085F8002025
:10472000B1E770B5002500F07BF805460F48046836
:10473000284600F079F8204670BD70B50446002583
:1047400000F06EF8054609480460284600F06CF851
:1047500070BD000068000020690000207C0000207F
:104760006D0000206C000020980C002094000020B8
:1047700070477047704770477047704770B5044680
:1047800010464FF080750560051F28462C606FF0BD
:104790000106051F28462E604FF01236051F2846D9
:1047A0002E604FF00336051F28462E604FF002366C
:1047B000051F28462E607610051F28462E60051F0F
:1047C000284629604FF01136051F28462E604FF00D
:1047D0001036051F28462E604FF00936051F284663
:1047E0002E604FF00836051F28462E604FF0073622
:1047F000051F28462E604FF00636051F28462E60FE
:104800004FF00536051F28462E604FF00436051F71
:1048100028462E6070BD7047704770477047000093
:10482000EFF3108072B6704780F310887047204C09
:10483000204D25604FF0000484F309881E4C4FF092
:10484000010525701D4C4FF08055256062B6FEE7CE
:1048500030B41A4C4FF08055256030BC704730B4EE
:10486000164C4FF08055256030BC704700BF72B6C3
:10487000EFF3098028B1203880E8F00F104909686B
:10488000086000B50F4880475DF804EB0E480F49FB
:104890000A7802700A480E490A680260106890E8B7
:1048A000F00F203080F309884EF0040E62B6704796
:1048B00020ED00E00000FFFF7500002004ED00E0A7
:1048C0007C000020174800086A0000206B000020D0
:1048D00084000020704700000FB4044910B503AAFB
:1048E000029800F0D1F810BC5DF814FB3C000020E9
:1048F0002DE9F0410E460446002020622046E16882
:10490000884730B3252805D0D4E901219047206A93
:10491000401CF2E7E168204600278847050018D0D0
:10492000A5F14100192802D820354FF4006732461E
:10493000294620462760FBF735FC40B1012804D00A
:10494000F61D26F007060836D8E7361DD6E72846B6
:10495000DAE7206ABDE8F0812DE9F041064600243F
:1049600010687529314615A510D0AFF300800028D6
:1049700002DA404212A507E031688A0701D511A585
:1049800002E0490704D510A5012401E0AFF300803F
:1049900000210A2306F1240707E0B0FBF3F203FB32
:1049A0001200303078541046491C0028F5D12346B7
:1049B0002A463046BDE8F04100F00CB80000000087
:1049C0002D0000002B000000200000007047704701
:1049D000704770472DE9F0470D46994692460446C8
:1049E00000F124080168880604D5E06921F010016F
:1049F000216000E00120A84201DD471B00E0002704
:104A0000A1697A1902EB0900081AA0612078C00692
:104A100002D42046AFF30080002608E0D4E901214B
:104A20001AF806009047206A401C761C20624E450A
:104A3000F4DB2078C0060AD52046AFF3008006E0FC
:104A4000D4E9012130209047206A401C2062381EA2
:104A5000A7F10107F4DC07E0D4E9012118F805000B
:104A60009047206A401C2062281EA5F10105F3DC56
:104A70002046AFF300802078000602D50220BDE872
:104A8000F0870120FBE70000074B70B50D467B4423
:104A900000F011F80446284600F020F810B14FF05D
:104AA000FF3070BD204670BD11CDFFFF01694A1C6B
:104AB00002610878704700B58FB0CDE9013100215F
:104AC000059105497944CDE9031011466846FFF781
:104AD0000FFF0FB000BD0000E5FFFFFF007B00F0FF
:104AE00080007047754600F029F8AE46050069461B
:104AF000534620F00700854618B020B5FCF7F2FEBB
:104B0000BDE820404FF000064FF000074FF00008CE
:104B10004FF0000B21F00701AC46ACE8C009ACE84F
:104B2000C009ACE8C009ACE8C0098D46704704462E
:104B3000AFF300802046FBF747FB000000487047BA
:104B4000AC11002090EA010F48BF81F0004100F154
:104B50004E81421A3CBF801A89184FEAD0524FF05A
:104B60007F4C1CEA410FA2EBD15318BF9CEA026FA5
:104B700000F03B804FF0004C4CEA00204CEA012151
:104B800021FA03FC10EB0C0C1ED202F1FF325FEA9B
:104B90001C2040EBC25038BF70471CF07F0F4FEA1B
:104BA000400C18BFBCF17F4F38BF7047C3F12003E2
:104BB000994008BF20F00100BCF17F4F38BF70471B
:104BC000A0F1C04000F007B94FEA3C00000A40EBFA
:104BD000C25028BF1CF0FF0F4FEA400CE6D018BFB0
:104BE000BCF17F4F38BF7047EAE79CEA026F05D0FF
:104BF00010EA5C0F08BF00F00040704710B500F0ED
:104C0000A4F800BF64FBBE3EC10DD1F19E0206DBDD
:104C10004FEA002343F0004323FA02F070470042BA
:104C200007D54FEA4001B1F1FE4F02D24FF000002C
:104C3000704710B500F089F8499224800020704731
:104C40006FEA2000704700004FF47F0C1CEAD0127E
:104C50001EBF1CEAD11392EA0C0F93EA0C0F00F06E
:104C6000478090EA010F48BF42F480724FF0004C39
:104C70004CEA00204CEA012102EB0302A0FB0113E5
:104C8000A2F50002002918BF43F001035B0028BF12
:104C90004FEA330342EB22425FEA132C4CEBC25043
:104CA0002EBFBCEB436FB2F57C0F70474FEA036C2D
:104CB000BCF1004F08BF20F00100B2F57C0F38BFF7
:104CC00070470BD582F0FF0212F5803FC8BF7047D6
:104CD00000F1C040D8BF00F00040704700F5000C64
:104CE0005FEA4C0C48BF7047B0F1C04000F073B8A9
:104CF00090EA010F0CEAD11348BF42F4807262457A
:104D000038BF634504D280EA010000F000407047DC
:104D100010B500F01AF800BF8900013E00F007B896
:104D200000F009B85FEA410C5FEA1C6C08D080EA29
:104D3000010000F050B85FEA400C5FEA1C6CF6D14D
:104D40004FF00040A0F5800070470EF1020E2EF0EB
:104D5000030E5EF8044B244204D44FEA4102B2F140
:104D60007F4F11D84FEA4003B3F17F4F0CD80ED1DB
:104D70004FEAD07CB2F17F4F0CEB4C0C0CF1020CE3
:104D800008BF4CEBD17C04E04FF0080C01E04FEA87
:104D9000D17C0CEB4C0324FA03F404F00704B4F1C7
:104DA000040C06D20EEB840CBDE810404CF0010C54
:104DB0006047DFE80CF0070802024FF00040A0F562
:104DC000800010BD0846420018BFD2F1807288BF33
:104DD00000F0004010BDFF2141EAD050C0057047EF
:104DE00090EA010F48BF81F000413FF5B2AE421A90
:104DF00004D882F00042A0EB020011444FEAD052E6
:104E00004FF07F4C1CEA410FA2EBD15318BF9CEA34
:104E1000026F4AD04FF0004C4CEA00204CEA0121CE
:104E200021FA03FCB0EB0C0C0FD412F0FE0F36D0BD
:104E30005FEA4C001DD5001240EBC25038BF7047EE
:104E40001CF03F0F18BF70470BE0A2F101025FEAB0
:104E50001C2040EBC25038BF70471CF07F0F18BFBA
:104E60007047C3F12003994014BF401E20F0010099
:104E7000704780084FEA122308BF7047B0FA80FCE1
:104E8000A2EB0C02CCF1280C60FA0CF093EA122F82
:104E900004BF00EBC25070474FEAC3707047130A5B
:104EA0005FEADC1008BF7047F6E79CEA026F04D0A7
:104EB00010EA5C0F08BF0020704710B5FFF745FFF0
:104EC00040DFF63E81F00040704700000000000027
:104ED00000000000000000000404040404000004BA
:104EE000000014140A000000000000000000000090
:104EF0000A0A1F0A0A1F0A0A000000040E15050606
:104F00000C14150E0400000012150D152E2C2A127B
:104F100000000000040A0A361515291600000202D6
:104F20000100000000000000000010080804040454
:104F3000040408081000020404080808080804040F
:104F4000020000000004150E0E1504000000000011
:104F50000008083E080800000000000000000000F3
:104F600000000202010000000000003F00000000FD
:104F7000000000000000000000000002000000200F
:104F80001010080804040202010000000E111111A3
:104F90001111110E00000000040604040404040EA4
:104FA000000000000E1111080402011F00000000A3
:104FB0000E11100C1010110E00000000080C0C0A4D
:104FC000091F081C000000001F01010F1110110E25
:104FD000000000000C12010D1311110E0000000062
:104FE0001E10080804040404000000000E11110E35
:104FF0001111110E000000000E11111916100906F2
:105000000000000000000400000000040000000098
:105010000000000400000004040000001008040266
:10502000020408100000000000003F003F000000E4
:105030000000000002040810100804020000000034
:105040000E11110804040004000000001C22292D88
:105050002D1D221C0000000004040C0A0A1E12333D
:10506000000000000F12120E1212120F00000000BA
:105070001E1101010101110E000000000F12121299
:105080001212120F000000001F120A0E0A02121F55
:10509000000000001F120A0E0A02020700000000B2
:1050A0001C1201013911120C000000003312121EF3
:1050B00012121233000000001F0404040404041F31
:1050C000000000003E08080808080808090700005A
:1050D00037120A060A121237000000000702020205
:1050E0000202223F000000003B1B1B1B151515355B
:1050F000000000003B1216161A1A121700000000DA
:105100000E1111111111110E000000000F12120EDC
:1051100002020207000000000E1111111117190EF2
:10512000180000000F12120E0A12123700000000C1
:105130001E1101060810110F000000001F150404C5
:105140000404040E00000000331212121212120C9A
:10515000000000003312120A0A0C040400000000D0
:10516000151515150E0A0A0A000000001B0A0A048C
:10517000040A0A1B000000001B0A0A0A0404040EA9
:10518000000000001F0908040402121F00001C0494
:1051900004040404040404041C00000202040404C3
:1051A0000808081010000E08080808080808080871
:1051B0000E00040A000000000000000000000000D3
:1051C0000000000000000000003F0204000000009A
:1051D00000000000000000000000000C121C123C47
:1051E000000000030202020E1212120E0000000064
:1051F0000000001C1202120C000000181010101CFD
:105200001212123C000000000000000C121E021CD2
:10521000000000182404041E0404041E0000000002
:105220000000003C120C021C221C00030202020EB1
:105230001212123700000004040000060404040ED9
:10524000000000080800000C080808080807000310
:105250000202021A0A060A130000000704040404EA
:105260000404041F000000000000000F15151515B0
:10527000000000000000000F1212123700000000B2
:105280000000000C1212120C000000000000000FC1
:105290001212120E020700000000001C1212121C53
:1052A000103800000000001B06020207000000008A
:1052B0000000001E020C101E000000000004041E6E
:1052C0000404041C000000000000001B1212123C29
:1052D000000000000000001B0A0A04040000000097
:1052E00000000015150E0A0A000000000000001B57
:1052F0000A040A1B000000000000003312120C0810
:10530000040300000000001E0804041E000018082A
:105310000808080C08080808180008080808080801
:10532000080808080808060404040408040404041F
:105330000600160900000000000000000000000048
:10534000000000000000000000000000000000005D
:10535000000808080808080800001818000000489D
:105360006C2412000000000000000000000000009B
:10537000002424247F1212127F1212120000000057
:10538000081C2A2A0A0C1828282A2A1C08080000A7
:105390000022251515152A585454542200000000E7
:1053A000000C1212120A76252911916E00000006D7
:1053B00006040300000000000000000000000040A0
:1053C00020101008080808080810102040000002EB
:1053D0000408081010101010100808040200000043
:1053E000000008086B1C1C6B08080000000000008F
:1053F0000000080808087F080808080000000000EE
:105400000000000000000000000006060403000089
:10541000000000000000FE0000000000000000008E
:105420000000000000000000000006060000000070
:1054300080404020201010080804040202000000F0
:105440000018244242424242424224180000000016
:1054500000080E08080808080808083E00000000B8
:10546000003C4242422020100804427E000000001E
:10547000003C4242201820404042221C0000000014
:1054800000203028242422227E20207800000000E2
:10549000007E0202021A26404042221C0000000048
:1054A00000382402021A264242422418000000005A
:1054B000007E2222101008080808080800000000DA
:1054C000003C4242422418244242423C0000000078
:1054D00000182442424264584040241C000000004E
:1054E000000000001818000000001818000000005C
:1054F0000000000000080000000000080804000090
:1055000000402010080402040810204000000000A1
:10551000000000007F0000007F000000000000008D
:1055200000020408102040201008040200000000BF
:10553000003C4242464020101000181800000000B5
:10554000001C225A555555552D42221C00000000C2
:10555000000808181414243C224242E7000000000E
:10556000001F2222221E22424242221F000000006F
:10557000007C4242010101010142221C00000000A6
:10558000001F2242424242424242221F00000000CB
:10559000003F4212121E12120242423F000000005F
:1055A000003F4212121E1212020202070000000007
:1055B000003C2222010101712122221C0000000076
:1055C00000E7424242427E42424242E7000000007F
:1055D000003E0808080808080808083E0000000007
:1055E000007C10101010101010101010110F00007F
:1055F000007722120A0E0A121222227700000000FF
:1056000000070202020202020202427F00000000C2
:105610000077363636362A2A2A2A2A6B00000000FE
:1056200000E346464A4A5252526262470000000076
:10563000001C2241414141414141221C0000000027
:10564000003F424242423E020202020700000000C6
:10565000001C2241414141414D53321C6000000079
:10566000003F4242423E1212222242C70000000086
:10567000007C4242020418204042423E00000000EA
:10568000007F4908080808080808081C00000000F6
:1056900000E74242424242424242423C0000000095
:1056A00000E74242222424141418080800000000D5
:1056B000006B494949495555362222220000000015
:1056C00000E7422424181818242442E700000000B0
:1056D00000772222141408080808081C00000000A3
:1056E000007E2120101008040442423F0000007890
:1056F00008080808080808080808080878000000D2
:105700000202040408080810102020204040001E57
:105710001010101010101010101010101E00003873
:105720004400000000000000000000000000000035
:1057300000000000000000000000000000FF000664
:105740000800000000000000000000000000000051
:1057500000000000003C4278444242FC000000008F
:1057600000030202021A26424242261A00000000EA
:10577000000000000038440202024438000000002B
:105780000060404040784442424264D8000000003B
:1057900000000000003C427E0202423C000000008B
:1057A00000F08808087E08080808083E000000008D
:1057B00000000000007C22221C023C42423C00000F
:1057C00000030202023A4642424242E70000000061
:1057D000000C0C00000E08080808083E000000003D
:1057E000003030000038202020202020221E000021
:1057F000000302020272120A161222770000000051
:10580000000E0808080808080808083E0000000004
:1058100000000000007F9292929292B70000000078
:1058200000000000003B4642424242E70000000008
:1058300000000000003C42424242423C00000000A6
:1058400000000000001B26424242221E0207000008
:1058500000000000007844424242447840E00000EA
:105860000000000000774C040404041F0000000046
:1058700000000000007C42023C40423E000000006C
:1058800000000008083E0808080808300000000072
:105890000000000000634242424262DC000000005F
:1058A0000000000000E74224241408080000000063
:1058B0000000000000EB494955552222000000007D
:1058C00000000000007624181818246E0000000064
:1058D0000000000000E74224241418080807000014
:1058E00000000000007E22100808447E000000C076
:1058F000202020202010202020202020C000101058
:1059000010101010101010101010101010100006B1
:1059100008080808081008080808080806000C32DB
:10592000C2000000000000000000000000000000B5
:105930000000000000000000000000000000000067
:105940000000000000000000000000000000000057
:105950000000000000000000000000000000000047
:105960000000000000006000600060006000600057
:1059700060006000400020002000200000000000C7
:1059800000006000600060000000000000000000F7
:1059900000006006600630039801880044000000A3
:1059A00000000000000000000000000000000000F7
:1059B00000000000000000000000000000000000E7
:1059C0000000000000001002100210021002FE078A
:1059D000FE0708020801080108010801FE07FE078A
:1059E00004010401040104010000000000000000A3
:1059F0000000000040004000F00158034C03CC03BD
:105A00004C0058007000E000C001C00140034C038E
:105A10005C034C034801F00040004000000000001F
:105A20000000000000000E010A01910091009100A9
:105A3000510051003A00AE03A00250045004480443
:105A400048044804840284030000000000000000B1
:105A500000000000000038006C006C006C006C005E
:105A60006C002C0098071C011A01330133016301FB
:105A7000E300C308C6093C07000000000000000066
:105A800000000C001C0010001000080004000000C2
:105A90000000000000000000000000000000000006
:105AA00000000000000000000000000000000000F6
:105AB000000000040002000180008000400040005F
:105AC00020002000200020002000200020004000B6
:105AD000400080008000000100020004000000007F
